{
  "contractName": "DeVacContract",
  "abi": [
    {
      "inputs": [],
      "stateMutability": "nonpayable",
      "type": "constructor"
    },
    {
      "anonymous": false,
      "inputs": [
        {
          "indexed": true,
          "internalType": "address",
          "name": "owner",
          "type": "address"
        },
        {
          "indexed": true,
          "internalType": "address",
          "name": "approved",
          "type": "address"
        },
        {
          "indexed": true,
          "internalType": "uint256",
          "name": "tokenId",
          "type": "uint256"
        }
      ],
      "name": "Approval",
      "type": "event"
    },
    {
      "anonymous": false,
      "inputs": [
        {
          "indexed": true,
          "internalType": "address",
          "name": "owner",
          "type": "address"
        },
        {
          "indexed": true,
          "internalType": "address",
          "name": "operator",
          "type": "address"
        },
        {
          "indexed": false,
          "internalType": "bool",
          "name": "approved",
          "type": "bool"
        }
      ],
      "name": "ApprovalForAll",
      "type": "event"
    },
    {
      "anonymous": false,
      "inputs": [
        {
          "indexed": false,
          "internalType": "uint256",
          "name": "tokenId",
          "type": "uint256"
        },
        {
          "indexed": false,
          "internalType": "string",
          "name": "tokenURI",
          "type": "string"
        },
        {
          "indexed": false,
          "internalType": "address",
          "name": "owner",
          "type": "address"
        }
      ],
      "name": "TokenMinted",
      "type": "event"
    },
    {
      "anonymous": false,
      "inputs": [
        {
          "indexed": true,
          "internalType": "address",
          "name": "from",
          "type": "address"
        },
        {
          "indexed": true,
          "internalType": "address",
          "name": "to",
          "type": "address"
        },
        {
          "indexed": true,
          "internalType": "uint256",
          "name": "tokenId",
          "type": "uint256"
        }
      ],
      "name": "Transfer",
      "type": "event"
    },
    {
      "inputs": [
        {
          "internalType": "address",
          "name": "to",
          "type": "address"
        },
        {
          "internalType": "uint256",
          "name": "tokenId",
          "type": "uint256"
        }
      ],
      "name": "approve",
      "outputs": [],
      "stateMutability": "nonpayable",
      "type": "function"
    },
    {
      "inputs": [
        {
          "internalType": "address",
          "name": "owner",
          "type": "address"
        }
      ],
      "name": "balanceOf",
      "outputs": [
        {
          "internalType": "uint256",
          "name": "",
          "type": "uint256"
        }
      ],
      "stateMutability": "view",
      "type": "function",
      "constant": true
    },
    {
      "inputs": [
        {
          "internalType": "uint256",
          "name": "tokenId",
          "type": "uint256"
        }
      ],
      "name": "getApproved",
      "outputs": [
        {
          "internalType": "address",
          "name": "",
          "type": "address"
        }
      ],
      "stateMutability": "view",
      "type": "function",
      "constant": true
    },
    {
      "inputs": [
        {
          "internalType": "address",
          "name": "owner",
          "type": "address"
        },
        {
          "internalType": "address",
          "name": "operator",
          "type": "address"
        }
      ],
      "name": "isApprovedForAll",
      "outputs": [
        {
          "internalType": "bool",
          "name": "",
          "type": "bool"
        }
      ],
      "stateMutability": "view",
      "type": "function",
      "constant": true
    },
    {
      "inputs": [],
      "name": "name",
      "outputs": [
        {
          "internalType": "string",
          "name": "",
          "type": "string"
        }
      ],
      "stateMutability": "view",
      "type": "function",
      "constant": true
    },
    {
      "inputs": [
        {
          "internalType": "uint256",
          "name": "tokenId",
          "type": "uint256"
        }
      ],
      "name": "ownerOf",
      "outputs": [
        {
          "internalType": "address",
          "name": "",
          "type": "address"
        }
      ],
      "stateMutability": "view",
      "type": "function",
      "constant": true
    },
    {
      "inputs": [
        {
          "internalType": "address",
          "name": "from",
          "type": "address"
        },
        {
          "internalType": "address",
          "name": "to",
          "type": "address"
        },
        {
          "internalType": "uint256",
          "name": "tokenId",
          "type": "uint256"
        }
      ],
      "name": "safeTransferFrom",
      "outputs": [],
      "stateMutability": "nonpayable",
      "type": "function"
    },
    {
      "inputs": [
        {
          "internalType": "address",
          "name": "from",
          "type": "address"
        },
        {
          "internalType": "address",
          "name": "to",
          "type": "address"
        },
        {
          "internalType": "uint256",
          "name": "tokenId",
          "type": "uint256"
        },
        {
          "internalType": "bytes",
          "name": "_data",
          "type": "bytes"
        }
      ],
      "name": "safeTransferFrom",
      "outputs": [],
      "stateMutability": "nonpayable",
      "type": "function"
    },
    {
      "inputs": [
        {
          "internalType": "address",
          "name": "operator",
          "type": "address"
        },
        {
          "internalType": "bool",
          "name": "approved",
          "type": "bool"
        }
      ],
      "name": "setApprovalForAll",
      "outputs": [],
      "stateMutability": "nonpayable",
      "type": "function"
    },
    {
      "inputs": [
        {
          "internalType": "bytes4",
          "name": "interfaceId",
          "type": "bytes4"
        }
      ],
      "name": "supportsInterface",
      "outputs": [
        {
          "internalType": "bool",
          "name": "",
          "type": "bool"
        }
      ],
      "stateMutability": "view",
      "type": "function",
      "constant": true
    },
    {
      "inputs": [],
      "name": "symbol",
      "outputs": [
        {
          "internalType": "string",
          "name": "",
          "type": "string"
        }
      ],
      "stateMutability": "view",
      "type": "function",
      "constant": true
    },
    {
      "inputs": [
        {
          "internalType": "uint256",
          "name": "tokenId",
          "type": "uint256"
        }
      ],
      "name": "tokenURI",
      "outputs": [
        {
          "internalType": "string",
          "name": "",
          "type": "string"
        }
      ],
      "stateMutability": "view",
      "type": "function",
      "constant": true
    },
    {
      "inputs": [
        {
          "internalType": "address",
          "name": "from",
          "type": "address"
        },
        {
          "internalType": "address",
          "name": "to",
          "type": "address"
        },
        {
          "internalType": "uint256",
          "name": "tokenId",
          "type": "uint256"
        }
      ],
      "name": "transferFrom",
      "outputs": [],
      "stateMutability": "nonpayable",
      "type": "function"
    },
    {
      "inputs": [],
      "name": "isOwner",
      "outputs": [
        {
          "internalType": "bool",
          "name": "",
          "type": "bool"
        }
      ],
      "stateMutability": "view",
      "type": "function",
      "constant": true
    },
    {
      "inputs": [
        {
          "internalType": "address",
          "name": "_to",
          "type": "address"
        },
        {
          "internalType": "string",
          "name": "_tokenURI",
          "type": "string"
        }
      ],
      "name": "mint",
      "outputs": [],
      "stateMutability": "nonpayable",
      "type": "function"
    },
    {
      "inputs": [
        {
          "internalType": "address",
          "name": "_to",
          "type": "address"
        }
      ],
      "name": "getTokensForOwner",
      "outputs": [
        {
          "internalType": "uint256[]",
          "name": "",
          "type": "uint256[]"
        }
      ],
      "stateMutability": "view",
      "type": "function",
      "constant": true
    },
    {
      "inputs": [
        {
          "internalType": "uint256",
          "name": "_tokenId",
          "type": "uint256"
        }
      ],
      "name": "getTokenDetailsForId",
      "outputs": [
        {
          "components": [
            {
              "internalType": "uint256",
              "name": "tokenId",
              "type": "uint256"
            },
            {
              "internalType": "string",
              "name": "tokenURI",
              "type": "string"
            },
            {
              "internalType": "address",
              "name": "owner",
              "type": "address"
            }
          ],
          "internalType": "struct DeVacContract.DeVacToken",
          "name": "",
          "type": "tuple"
        }
      ],
      "stateMutability": "view",
      "type": "function",
      "constant": true
    }
  ],
  "bytecode": "0x608060405260006006553480156200001657600080fd5b506040518060400160405280600581526020017f44655661630000000000000000000000000000000000000000000000000000008152506040518060400160405280600481526020017f445661630000000000000000000000000000000000000000000000000000000081525081600090805190602001906200009b929190620000fe565b508060019080519060200190620000b4929190620000fe565b50505033600760006101000a81548173ffffffffffffffffffffffffffffffffffffffff021916908373ffffffffffffffffffffffffffffffffffffffff16021790555062000213565b8280546200010c90620001ae565b90600052602060002090601f0160209004810192826200013057600085556200017c565b82601f106200014b57805160ff19168380011785556200017c565b828001600101855582156200017c579182015b828111156200017b5782518255916020019190600101906200015e565b5b5090506200018b91906200018f565b5090565b5b80821115620001aa57600081600090555060010162000190565b5090565b60006002820490506001821680620001c757607f821691505b60208210811415620001de57620001dd620001e4565b5b50919050565b7f4e487b7100000000000000000000000000000000000000000000000000000000600052602260045260246000fd5b612f8480620002236000396000f3fe608060405234801561001057600080fd5b506004361061010b5760003560e01c80636352211e116100a2578063a22cb46511610071578063a22cb465146102de578063b88d4fde146102fa578063c87b56dd14610316578063d0def52114610346578063e985e9c5146103625761010b565b80636352211e1461024257806370a08231146102725780638f32d59b146102a257806395d89b41146102c05761010b565b8063095ea7b3116100de578063095ea7b3146101be57806323b872dd146101da57806342842e0e146101f65780635b60fda2146102125761010b565b806301ffc9a71461011057806306fdde03146101405780630725e8981461015e578063081812fc1461018e575b600080fd5b61012a60048036038101906101259190611f6c565b610392565b604051610137919061246b565b60405180910390f35b610148610474565b6040516101559190612486565b60405180910390f35b61017860048036038101906101739190611d71565b610506565b6040516101859190612449565b60405180910390f35b6101a860048036038101906101a39190611fbe565b6105d7565b6040516101b591906123e2565b60405180910390f35b6101d860048036038101906101d39190611f30565b61065c565b005b6101f460048036038101906101ef9190611dd6565b610774565b005b610210600480360381019061020b9190611dd6565b6107d4565b005b61022c60048036038101906102279190611fbe565b6107f4565b6040516102399190612668565b60405180910390f35b61025c60048036038101906102579190611fbe565b610981565b60405161026991906123e2565b60405180910390f35b61028c60048036038101906102879190611d71565b610a33565b604051610299919061268a565b60405180910390f35b6102aa610aeb565b6040516102b7919061246b565b60405180910390f35b6102c8610b43565b6040516102d59190612486565b60405180910390f35b6102f860048036038101906102f39190611ea0565b610bd5565b005b610314600480360381019061030f9190611e25565b610d56565b005b610330600480360381019061032b9190611fbe565b610db8565b60405161033d9190612486565b60405180910390f35b610360600480360381019061035b9190611edc565b610e5f565b005b61037c60048036038101906103779190611d9a565b61105c565b604051610389919061246b565b60405180910390f35b60007f80ac58cd000000000000000000000000000000000000000000000000000000007bffffffffffffffffffffffffffffffffffffffffffffffffffffffff1916827bffffffffffffffffffffffffffffffffffffffffffffffffffffffff1916148061045d57507f5b5e139f000000000000000000000000000000000000000000000000000000007bffffffffffffffffffffffffffffffffffffffffffffffffffffffff1916827bffffffffffffffffffffffffffffffffffffffffffffffffffffffff1916145b8061046d575061046c826110f0565b5b9050919050565b60606000805461048390612968565b80601f01602080910402602001604051908101604052809291908181526020018280546104af90612968565b80156104fc5780601f106104d1576101008083540402835291602001916104fc565b820191906000526020600020905b8154815290600101906020018083116104df57829003601f168201915b5050505050905090565b6060600073ffffffffffffffffffffffffffffffffffffffff168273ffffffffffffffffffffffffffffffffffffffff16141561054257600080fd5b600860008373ffffffffffffffffffffffffffffffffffffffff1673ffffffffffffffffffffffffffffffffffffffff1681526020019081526020016000208054806020026020016040519081016040528092919081815260200182805480156105cb57602002820191906000526020600020905b8154815260200190600101908083116105b7575b50505050509050919050565b60006105e28261115a565b610621576040517f08c379a0000000000000000000000000000000000000000000000000000000008152600401610618906125c8565b60405180910390fd5b6004600083815260200190815260200160002060009054906101000a900473ffffffffffffffffffffffffffffffffffffffff169050919050565b600061066782610981565b90508073ffffffffffffffffffffffffffffffffffffffff168373ffffffffffffffffffffffffffffffffffffffff1614156106d8576040517f08c379a00000000000000000000000000000000000000000000000000000000081526004016106cf90612628565b60405180910390fd5b8073ffffffffffffffffffffffffffffffffffffffff166106f76111c6565b73ffffffffffffffffffffffffffffffffffffffff1614806107265750610725816107206111c6565b61105c565b5b610765576040517f08c379a000000000000000000000000000000000000000000000000000000000815260040161075c90612548565b60405180910390fd5b61076f83836111ce565b505050565b61078561077f6111c6565b82611287565b6107c4576040517f08c379a00000000000000000000000000000000000000000000000000000000081526004016107bb90612648565b60405180910390fd5b6107cf838383611365565b505050565b6107ef83838360405180602001604052806000815250610d56565b505050565b6107fc611b5e565b3373ffffffffffffffffffffffffffffffffffffffff166009600084815260200190815260200160002060020160009054906101000a900473ffffffffffffffffffffffffffffffffffffffff1673ffffffffffffffffffffffffffffffffffffffff161461086a57600080fd5b60096000838152602001908152602001600020604051806060016040529081600082015481526020016001820180546108a290612968565b80601f01602080910402602001604051908101604052809291908181526020018280546108ce90612968565b801561091b5780601f106108f05761010080835404028352916020019161091b565b820191906000526020600020905b8154815290600101906020018083116108fe57829003601f168201915b505050505081526020016002820160009054906101000a900473ffffffffffffffffffffffffffffffffffffffff1673ffffffffffffffffffffffffffffffffffffffff1673ffffffffffffffffffffffffffffffffffffffff16815250509050919050565b6000806002600084815260200190815260200160002060009054906101000a900473ffffffffffffffffffffffffffffffffffffffff169050600073ffffffffffffffffffffffffffffffffffffffff168173ffffffffffffffffffffffffffffffffffffffff161415610a2a576040517f08c379a0000000000000000000000000000000000000000000000000000000008152600401610a2190612588565b60405180910390fd5b80915050919050565b60008073ffffffffffffffffffffffffffffffffffffffff168273ffffffffffffffffffffffffffffffffffffffff161415610aa4576040517f08c379a0000000000000000000000000000000000000000000000000000000008152600401610a9b90612568565b60405180910390fd5b600360008373ffffffffffffffffffffffffffffffffffffffff1673ffffffffffffffffffffffffffffffffffffffff168152602001908152602001600020549050919050565b6000600760009054906101000a900473ffffffffffffffffffffffffffffffffffffffff1673ffffffffffffffffffffffffffffffffffffffff163373ffffffffffffffffffffffffffffffffffffffff1614905090565b606060018054610b5290612968565b80601f0160208091040260200160405190810160405280929190818152602001828054610b7e90612968565b8015610bcb5780601f10610ba057610100808354040283529160200191610bcb565b820191906000526020600020905b815481529060010190602001808311610bae57829003601f168201915b5050505050905090565b610bdd6111c6565b73ffffffffffffffffffffffffffffffffffffffff168273ffffffffffffffffffffffffffffffffffffffff161415610c4b576040517f08c379a0000000000000000000000000000000000000000000000000000000008152600401610c4290612508565b60405180910390fd5b8060056000610c586111c6565b73ffffffffffffffffffffffffffffffffffffffff1673ffffffffffffffffffffffffffffffffffffffff16815260200190815260200160002060008473ffffffffffffffffffffffffffffffffffffffff1673ffffffffffffffffffffffffffffffffffffffff16815260200190815260200160002060006101000a81548160ff0219169083151502179055508173ffffffffffffffffffffffffffffffffffffffff16610d056111c6565b73ffffffffffffffffffffffffffffffffffffffff167f17307eab39ab6107e8899845ad3d59bd9653f200f220920489ca2b5937696c3183604051610d4a919061246b565b60405180910390a35050565b610d67610d616111c6565b83611287565b610da6576040517f08c379a0000000000000000000000000000000000000000000000000000000008152600401610d9d90612648565b60405180910390fd5b610db2848484846115c1565b50505050565b6060610dc38261115a565b610e02576040517f08c379a0000000000000000000000000000000000000000000000000000000008152600401610df990612608565b60405180910390fd5b6000610e0c61161d565b90506000815111610e2c5760405180602001604052806000815250610e57565b80610e3684611634565b604051602001610e479291906123be565b6040516020818303038152906040525b915050919050565b60066000815480929190610e72906129cb565b9190505550600073ffffffffffffffffffffffffffffffffffffffff1660096000600654815260200190815260200160002060020160009054906101000a900473ffffffffffffffffffffffffffffffffffffffff1673ffffffffffffffffffffffffffffffffffffffff1614610ee857600080fd5b610ef4826006546117e1565b6000604051806060016040528060065481526020018381526020018473ffffffffffffffffffffffffffffffffffffffff168152509050600860008473ffffffffffffffffffffffffffffffffffffffff1673ffffffffffffffffffffffffffffffffffffffff168152602001908152602001600020600654908060018154018082558091505060019003906000526020600020016000909190919091505580600960006006548152602001908152602001600020600082015181600001556020820151816001019080519060200190610fcf929190611b95565b5060408201518160020160006101000a81548173ffffffffffffffffffffffffffffffffffffffff021916908373ffffffffffffffffffffffffffffffffffffffff1602179055509050507f9ef9d09a98563c827f651a028105395cc17f94ef23eb26b70d241439386a62f4600654838560405161104f939291906126a5565b60405180910390a1505050565b6000600560008473ffffffffffffffffffffffffffffffffffffffff1673ffffffffffffffffffffffffffffffffffffffff16815260200190815260200160002060008373ffffffffffffffffffffffffffffffffffffffff1673ffffffffffffffffffffffffffffffffffffffff16815260200190815260200160002060009054906101000a900460ff16905092915050565b60007f01ffc9a7000000000000000000000000000000000000000000000000000000007bffffffffffffffffffffffffffffffffffffffffffffffffffffffff1916827bffffffffffffffffffffffffffffffffffffffffffffffffffffffff1916149050919050565b60008073ffffffffffffffffffffffffffffffffffffffff166002600084815260200190815260200160002060009054906101000a900473ffffffffffffffffffffffffffffffffffffffff1673ffffffffffffffffffffffffffffffffffffffff1614159050919050565b600033905090565b816004600083815260200190815260200160002060006101000a81548173ffffffffffffffffffffffffffffffffffffffff021916908373ffffffffffffffffffffffffffffffffffffffff160217905550808273ffffffffffffffffffffffffffffffffffffffff1661124183610981565b73ffffffffffffffffffffffffffffffffffffffff167f8c5be1e5ebec7d5bd14f71427d1e84f3dd0314c0f7b2291e5b200ac8c7c3b92560405160405180910390a45050565b60006112928261115a565b6112d1576040517f08c379a00000000000000000000000000000000000000000000000000000000081526004016112c890612528565b60405180910390fd5b60006112dc83610981565b90508073ffffffffffffffffffffffffffffffffffffffff168473ffffffffffffffffffffffffffffffffffffffff16148061134b57508373ffffffffffffffffffffffffffffffffffffffff16611333846105d7565b73ffffffffffffffffffffffffffffffffffffffff16145b8061135c575061135b818561105c565b5b91505092915050565b8273ffffffffffffffffffffffffffffffffffffffff1661138582610981565b73ffffffffffffffffffffffffffffffffffffffff16146113db576040517f08c379a00000000000000000000000000000000000000000000000000000000081526004016113d2906125e8565b60405180910390fd5b600073ffffffffffffffffffffffffffffffffffffffff168273ffffffffffffffffffffffffffffffffffffffff16141561144b576040517f08c379a0000000000000000000000000000000000000000000000000000000008152600401611442906124e8565b60405180910390fd5b6114568383836119af565b6114616000826111ce565b6001600360008573ffffffffffffffffffffffffffffffffffffffff1673ffffffffffffffffffffffffffffffffffffffff16815260200190815260200160002060008282546114b1919061287e565b925050819055506001600360008473ffffffffffffffffffffffffffffffffffffffff1673ffffffffffffffffffffffffffffffffffffffff168152602001908152602001600020600082825461150891906127f7565b92505081905550816002600083815260200190815260200160002060006101000a81548173ffffffffffffffffffffffffffffffffffffffff021916908373ffffffffffffffffffffffffffffffffffffffff160217905550808273ffffffffffffffffffffffffffffffffffffffff168473ffffffffffffffffffffffffffffffffffffffff167fddf252ad1be2c89b69c2b068fc378daa952ba7f163c4a11628f55a4df523b3ef60405160405180910390a4505050565b6115cc848484611365565b6115d8848484846119b4565b611617576040517f08c379a000000000000000000000000000000000000000000000000000000000815260040161160e906124a8565b60405180910390fd5b50505050565b606060405180602001604052806000815250905090565b6060600082141561167c576040518060400160405280600181526020017f300000000000000000000000000000000000000000000000000000000000000081525090506117dc565b600082905060005b600082146116ae578080611697906129cb565b915050600a826116a7919061284d565b9150611684565b60008167ffffffffffffffff8111156116f0577f4e487b7100000000000000000000000000000000000000000000000000000000600052604160045260246000fd5b6040519080825280601f01601f1916602001820160405280156117225781602001600182028036833780820191505090505b5090505b600085146117d55760018261173b919061287e565b9150600a8561174a9190612a14565b603061175691906127f7565b60f81b818381518110611792577f4e487b7100000000000000000000000000000000000000000000000000000000600052603260045260246000fd5b60200101907effffffffffffffffffffffffffffffffffffffffffffffffffffffffffffff1916908160001a905350600a856117ce919061284d565b9450611726565b8093505050505b919050565b600073ffffffffffffffffffffffffffffffffffffffff168273ffffffffffffffffffffffffffffffffffffffff161415611851576040517f08c379a0000000000000000000000000000000000000000000000000000000008152600401611848906125a8565b60405180910390fd5b61185a8161115a565b1561189a576040517f08c379a0000000000000000000000000000000000000000000000000000000008152600401611891906124c8565b60405180910390fd5b6118a6600083836119af565b6001600360008473ffffffffffffffffffffffffffffffffffffffff1673ffffffffffffffffffffffffffffffffffffffff16815260200190815260200160002060008282546118f691906127f7565b92505081905550816002600083815260200190815260200160002060006101000a81548173ffffffffffffffffffffffffffffffffffffffff021916908373ffffffffffffffffffffffffffffffffffffffff160217905550808273ffffffffffffffffffffffffffffffffffffffff16600073ffffffffffffffffffffffffffffffffffffffff167fddf252ad1be2c89b69c2b068fc378daa952ba7f163c4a11628f55a4df523b3ef60405160405180910390a45050565b505050565b60006119d58473ffffffffffffffffffffffffffffffffffffffff16611b4b565b15611b3e578373ffffffffffffffffffffffffffffffffffffffff1663150b7a026119fe6111c6565b8786866040518563ffffffff1660e01b8152600401611a2094939291906123fd565b602060405180830381600087803b158015611a3a57600080fd5b505af1925050508015611a6b57506040513d601f19601f82011682018060405250810190611a689190611f95565b60015b611aee573d8060008114611a9b576040519150601f19603f3d011682016040523d82523d6000602084013e611aa0565b606091505b50600081511415611ae6576040517f08c379a0000000000000000000000000000000000000000000000000000000008152600401611add906124a8565b60405180910390fd5b805181602001fd5b63150b7a0260e01b7bffffffffffffffffffffffffffffffffffffffffffffffffffffffff1916817bffffffffffffffffffffffffffffffffffffffffffffffffffffffff191614915050611b43565b600190505b949350505050565b600080823b905060008111915050919050565b60405180606001604052806000815260200160608152602001600073ffffffffffffffffffffffffffffffffffffffff1681525090565b828054611ba190612968565b90600052602060002090601f016020900481019282611bc35760008555611c0a565b82601f10611bdc57805160ff1916838001178555611c0a565b82800160010185558215611c0a579182015b82811115611c09578251825591602001919060010190611bee565b5b509050611c179190611c1b565b5090565b5b80821115611c34576000816000905550600101611c1c565b5090565b6000611c4b611c4684612708565b6126e3565b905082815260208101848484011115611c6357600080fd5b611c6e848285612926565b509392505050565b6000611c89611c8484612739565b6126e3565b905082815260208101848484011115611ca157600080fd5b611cac848285612926565b509392505050565b600081359050611cc381612ef2565b92915050565b600081359050611cd881612f09565b92915050565b600081359050611ced81612f20565b92915050565b600081519050611d0281612f20565b92915050565b600082601f830112611d1957600080fd5b8135611d29848260208601611c38565b91505092915050565b600082601f830112611d4357600080fd5b8135611d53848260208601611c76565b91505092915050565b600081359050611d6b81612f37565b92915050565b600060208284031215611d8357600080fd5b6000611d9184828501611cb4565b91505092915050565b60008060408385031215611dad57600080fd5b6000611dbb85828601611cb4565b9250506020611dcc85828601611cb4565b9150509250929050565b600080600060608486031215611deb57600080fd5b6000611df986828701611cb4565b9350506020611e0a86828701611cb4565b9250506040611e1b86828701611d5c565b9150509250925092565b60008060008060808587031215611e3b57600080fd5b6000611e4987828801611cb4565b9450506020611e5a87828801611cb4565b9350506040611e6b87828801611d5c565b925050606085013567ffffffffffffffff811115611e8857600080fd5b611e9487828801611d08565b91505092959194509250565b60008060408385031215611eb357600080fd5b6000611ec185828601611cb4565b9250506020611ed285828601611cc9565b9150509250929050565b60008060408385031215611eef57600080fd5b6000611efd85828601611cb4565b925050602083013567ffffffffffffffff811115611f1a57600080fd5b611f2685828601611d32565b9150509250929050565b60008060408385031215611f4357600080fd5b6000611f5185828601611cb4565b9250506020611f6285828601611d5c565b9150509250929050565b600060208284031215611f7e57600080fd5b6000611f8c84828501611cde565b91505092915050565b600060208284031215611fa757600080fd5b6000611fb584828501611cf3565b91505092915050565b600060208284031215611fd057600080fd5b6000611fde84828501611d5c565b91505092915050565b6000611ff383836123a0565b60208301905092915050565b612008816128b2565b82525050565b612017816128b2565b82525050565b60006120288261277a565b61203281856127a8565b935061203d8361276a565b8060005b8381101561206e5781516120558882611fe7565b97506120608361279b565b925050600181019050612041565b5085935050505092915050565b612084816128c4565b82525050565b600061209582612785565b61209f81856127b9565b93506120af818560208601612935565b6120b881612b01565b840191505092915050565b60006120ce82612790565b6120d881856127ca565b93506120e8818560208601612935565b6120f181612b01565b840191505092915050565b600061210782612790565b61211181856127db565b9350612121818560208601612935565b61212a81612b01565b840191505092915050565b600061214082612790565b61214a81856127ec565b935061215a818560208601612935565b80840191505092915050565b60006121736032836127db565b915061217e82612b12565b604082019050919050565b6000612196601c836127db565b91506121a182612b61565b602082019050919050565b60006121b96024836127db565b91506121c482612b8a565b604082019050919050565b60006121dc6019836127db565b91506121e782612bd9565b602082019050919050565b60006121ff602c836127db565b915061220a82612c02565b604082019050919050565b60006122226038836127db565b915061222d82612c51565b604082019050919050565b6000612245602a836127db565b915061225082612ca0565b604082019050919050565b60006122686029836127db565b915061227382612cef565b604082019050919050565b600061228b6020836127db565b915061229682612d3e565b602082019050919050565b60006122ae602c836127db565b91506122b982612d67565b604082019050919050565b60006122d16029836127db565b91506122dc82612db6565b604082019050919050565b60006122f4602f836127db565b91506122ff82612e05565b604082019050919050565b60006123176021836127db565b915061232282612e54565b604082019050919050565b600061233a6031836127db565b915061234582612ea3565b604082019050919050565b600060608301600083015161236860008601826123a0565b506020830151848203602086015261238082826120c3565b91505060408301516123956040860182611fff565b508091505092915050565b6123a98161291c565b82525050565b6123b88161291c565b82525050565b60006123ca8285612135565b91506123d68284612135565b91508190509392505050565b60006020820190506123f7600083018461200e565b92915050565b6000608082019050612412600083018761200e565b61241f602083018661200e565b61242c60408301856123af565b818103606083015261243e818461208a565b905095945050505050565b60006020820190508181036000830152612463818461201d565b905092915050565b6000602082019050612480600083018461207b565b92915050565b600060208201905081810360008301526124a081846120fc565b905092915050565b600060208201905081810360008301526124c181612166565b9050919050565b600060208201905081810360008301526124e181612189565b9050919050565b60006020820190508181036000830152612501816121ac565b9050919050565b60006020820190508181036000830152612521816121cf565b9050919050565b60006020820190508181036000830152612541816121f2565b9050919050565b6000602082019050818103600083015261256181612215565b9050919050565b6000602082019050818103600083015261258181612238565b9050919050565b600060208201905081810360008301526125a18161225b565b9050919050565b600060208201905081810360008301526125c18161227e565b9050919050565b600060208201905081810360008301526125e1816122a1565b9050919050565b60006020820190508181036000830152612601816122c4565b9050919050565b60006020820190508181036000830152612621816122e7565b9050919050565b600060208201905081810360008301526126418161230a565b9050919050565b600060208201905081810360008301526126618161232d565b9050919050565b600060208201905081810360008301526126828184612350565b905092915050565b600060208201905061269f60008301846123af565b92915050565b60006060820190506126ba60008301866123af565b81810360208301526126cc81856120fc565b90506126db604083018461200e565b949350505050565b60006126ed6126fe565b90506126f9828261299a565b919050565b6000604051905090565b600067ffffffffffffffff82111561272357612722612ad2565b5b61272c82612b01565b9050602081019050919050565b600067ffffffffffffffff82111561275457612753612ad2565b5b61275d82612b01565b9050602081019050919050565b6000819050602082019050919050565b600081519050919050565b600081519050919050565b600081519050919050565b6000602082019050919050565b600082825260208201905092915050565b600082825260208201905092915050565b600082825260208201905092915050565b600082825260208201905092915050565b600081905092915050565b60006128028261291c565b915061280d8361291c565b9250827fffffffffffffffffffffffffffffffffffffffffffffffffffffffffffffffff0382111561284257612841612a45565b5b828201905092915050565b60006128588261291c565b91506128638361291c565b92508261287357612872612a74565b5b828204905092915050565b60006128898261291c565b91506128948361291c565b9250828210156128a7576128a6612a45565b5b828203905092915050565b60006128bd826128fc565b9050919050565b60008115159050919050565b60007fffffffff0000000000000000000000000000000000000000000000000000000082169050919050565b600073ffffffffffffffffffffffffffffffffffffffff82169050919050565b6000819050919050565b82818337600083830152505050565b60005b83811015612953578082015181840152602081019050612938565b83811115612962576000848401525b50505050565b6000600282049050600182168061298057607f821691505b6020821081141561299457612993612aa3565b5b50919050565b6129a382612b01565b810181811067ffffffffffffffff821117156129c2576129c1612ad2565b5b80604052505050565b60006129d68261291c565b91507fffffffffffffffffffffffffffffffffffffffffffffffffffffffffffffffff821415612a0957612a08612a45565b5b600182019050919050565b6000612a1f8261291c565b9150612a2a8361291c565b925082612a3a57612a39612a74565b5b828206905092915050565b7f4e487b7100000000000000000000000000000000000000000000000000000000600052601160045260246000fd5b7f4e487b7100000000000000000000000000000000000000000000000000000000600052601260045260246000fd5b7f4e487b7100000000000000000000000000000000000000000000000000000000600052602260045260246000fd5b7f4e487b7100000000000000000000000000000000000000000000000000000000600052604160045260246000fd5b6000601f19601f8301169050919050565b7f4552433732313a207472616e7366657220746f206e6f6e20455243373231526560008201527f63656976657220696d706c656d656e7465720000000000000000000000000000602082015250565b7f4552433732313a20746f6b656e20616c7265616479206d696e74656400000000600082015250565b7f4552433732313a207472616e7366657220746f20746865207a65726f2061646460008201527f7265737300000000000000000000000000000000000000000000000000000000602082015250565b7f4552433732313a20617070726f766520746f2063616c6c657200000000000000600082015250565b7f4552433732313a206f70657261746f7220717565727920666f72206e6f6e657860008201527f697374656e7420746f6b656e0000000000000000000000000000000000000000602082015250565b7f4552433732313a20617070726f76652063616c6c6572206973206e6f74206f7760008201527f6e6572206e6f7220617070726f76656420666f7220616c6c0000000000000000602082015250565b7f4552433732313a2062616c616e636520717565727920666f7220746865207a6560008201527f726f206164647265737300000000000000000000000000000000000000000000602082015250565b7f4552433732313a206f776e657220717565727920666f72206e6f6e657869737460008201527f656e7420746f6b656e0000000000000000000000000000000000000000000000602082015250565b7f4552433732313a206d696e7420746f20746865207a65726f2061646472657373600082015250565b7f4552433732313a20617070726f76656420717565727920666f72206e6f6e657860008201527f697374656e7420746f6b656e0000000000000000000000000000000000000000602082015250565b7f4552433732313a207472616e73666572206f6620746f6b656e2074686174206960008201527f73206e6f74206f776e0000000000000000000000000000000000000000000000602082015250565b7f4552433732314d657461646174613a2055524920717565727920666f72206e6f60008201527f6e6578697374656e7420746f6b656e0000000000000000000000000000000000602082015250565b7f4552433732313a20617070726f76616c20746f2063757272656e74206f776e6560008201527f7200000000000000000000000000000000000000000000000000000000000000602082015250565b7f4552433732313a207472616e736665722063616c6c6572206973206e6f74206f60008201527f776e6572206e6f7220617070726f766564000000000000000000000000000000602082015250565b612efb816128b2565b8114612f0657600080fd5b50565b612f12816128c4565b8114612f1d57600080fd5b50565b612f29816128d0565b8114612f3457600080fd5b50565b612f408161291c565b8114612f4b57600080fd5b5056fea2646970667358221220ba64feec551df5203d7861859ff14471f0564cbde6bb455531afab99083df2e964736f6c63430008040033",
  "immutableReferences": {},
  "source": "// SPDX-License-Identifier: GPL-3.0\r\npragma solidity >=0.7.0 <0.9.0;\r\n\r\nimport \"@openzeppelin/contracts/token/ERC721/ERC721.sol\";\r\n\r\ncontract DeVacContract is ERC721 {\r\n    uint256 private lastGeneratedTokenId = 0;\r\n    address private owner;\r\n    \r\n    struct DeVacToken {\r\n        uint256 tokenId;\r\n        string tokenURI;\r\n        address owner;\r\n    }\r\n\r\n    event TokenMinted(\r\n        uint256 tokenId,\r\n        string tokenURI,\r\n        address owner\r\n    );\r\n\r\n    mapping (address => uint256[]) private tokensSupplied;\r\n    mapping(uint256 => DeVacToken) private tokenURIs;\r\n\r\n    constructor() ERC721(\"DeVac\", \"DVac\") { owner = msg.sender; }\r\n\r\n    function isOwner() public view returns (bool) {\r\n        return msg.sender == owner;\r\n    }\r\n\r\n    function mint(address _to, string memory _tokenURI) public {\r\n        lastGeneratedTokenId++;\r\n\r\n        require(tokenURIs[lastGeneratedTokenId].owner == address(0));\r\n\r\n        _mint(_to, lastGeneratedTokenId);\r\n\r\n        DeVacToken memory generatedToken = DeVacToken(lastGeneratedTokenId, _tokenURI, _to);\r\n\r\n        tokensSupplied[_to].push(lastGeneratedTokenId);\r\n\r\n        tokenURIs[lastGeneratedTokenId] = generatedToken;\r\n\r\n        emit TokenMinted(lastGeneratedTokenId, _tokenURI, _to);\r\n    }\r\n\r\n    function getTokensForOwner(address _to) public view returns (uint256[] memory) {\r\n        require(_to != address(0));\r\n\r\n        return tokensSupplied[_to];\r\n    }\r\n\r\n    function getTokenDetailsForId(uint256 _tokenId) public view returns (DeVacToken memory) {\r\n        require(tokenURIs[_tokenId].owner == msg.sender);\r\n\r\n        return tokenURIs[_tokenId];\r\n    }\r\n}",
  "sourcePath": "C:/Workspace/dev/devac/src/contracts/DeVacContract.sol",
  "compiler": {
    "name": "solc",
    "version": "0.8.4+commit.c7e474f2.Emscripten.clang"
  },
  "schemaVersion": "3.3.3",
  "updatedAt": "2021-06-21T11:20:54.455Z",
  "networkType": "ethereum",
  "devdoc": {
    "kind": "dev",
    "methods": {
      "approve(address,uint256)": {
        "details": "See {IERC721-approve}."
      },
      "balanceOf(address)": {
        "details": "See {IERC721-balanceOf}."
      },
      "getApproved(uint256)": {
        "details": "See {IERC721-getApproved}."
      },
      "isApprovedForAll(address,address)": {
        "details": "See {IERC721-isApprovedForAll}."
      },
      "name()": {
        "details": "See {IERC721Metadata-name}."
      },
      "ownerOf(uint256)": {
        "details": "See {IERC721-ownerOf}."
      },
      "safeTransferFrom(address,address,uint256)": {
        "details": "See {IERC721-safeTransferFrom}."
      },
      "safeTransferFrom(address,address,uint256,bytes)": {
        "details": "See {IERC721-safeTransferFrom}."
      },
      "setApprovalForAll(address,bool)": {
        "details": "See {IERC721-setApprovalForAll}."
      },
      "supportsInterface(bytes4)": {
        "details": "See {IERC165-supportsInterface}."
      },
      "symbol()": {
        "details": "See {IERC721Metadata-symbol}."
      },
      "tokenURI(uint256)": {
        "details": "See {IERC721Metadata-tokenURI}."
      },
      "transferFrom(address,address,uint256)": {
        "details": "See {IERC721-transferFrom}."
      }
    },
    "version": 1
  },
  "userdoc": {
    "kind": "user",
    "methods": {},
    "version": 1
  }
}